{
  "contractName": "HealthcareRecords",
  "abi": [
    {
      "anonymous": false,
      "inputs": [
        {
          "indexed": true,
          "internalType": "address",
          "name": "patient",
          "type": "address"
        },
        {
          "indexed": true,
          "internalType": "address",
          "name": "creator",
          "type": "address"
        },
        {
          "indexed": false,
          "internalType": "string",
          "name": "dataHash",
          "type": "string"
        },
        {
          "indexed": false,
          "internalType": "string",
          "name": "drugUsed",
          "type": "string"
        },
        {
          "indexed": false,
          "internalType": "uint256",
          "name": "timestamp",
          "type": "uint256"
        }
      ],
      "name": "RecordAdded",
      "type": "event"
    },
    {
      "anonymous": false,
      "inputs": [
        {
          "indexed": true,
          "internalType": "address",
          "name": "userAddress",
          "type": "address"
        },
        {
          "indexed": false,
          "internalType": "string",
          "name": "username",
          "type": "string"
        },
        {
          "indexed": false,
          "internalType": "enum HealthcareRecords.UserRole",
          "name": "role",
          "type": "uint8"
        },
        {
          "indexed": false,
          "internalType": "uint256",
          "name": "timestamp",
          "type": "uint256"
        }
      ],
      "name": "UserRegistered",
      "type": "event"
    },
    {
      "inputs": [
        {
          "internalType": "address",
          "name": "",
          "type": "address"
        },
        {
          "internalType": "uint256",
          "name": "",
          "type": "uint256"
        }
      ],
      "name": "recordsOfPatient",
      "outputs": [
        {
          "internalType": "address",
          "name": "patientAddress",
          "type": "address"
        },
        {
          "internalType": "string",
          "name": "dataHash",
          "type": "string"
        },
        {
          "internalType": "string",
          "name": "description",
          "type": "string"
        },
        {
          "internalType": "string",
          "name": "drugUsed",
          "type": "string"
        },
        {
          "internalType": "uint256",
          "name": "quantity",
          "type": "uint256"
        },
        {
          "internalType": "string",
          "name": "cause",
          "type": "string"
        },
        {
          "internalType": "uint256",
          "name": "timestamp",
          "type": "uint256"
        },
        {
          "internalType": "address",
          "name": "creator",
          "type": "address"
        }
      ],
      "stateMutability": "view",
      "type": "function",
      "constant": true
    },
    {
      "inputs": [
        {
          "internalType": "address",
          "name": "",
          "type": "address"
        }
      ],
      "name": "users",
      "outputs": [
        {
          "internalType": "string",
          "name": "username",
          "type": "string"
        },
        {
          "internalType": "enum HealthcareRecords.UserRole",
          "name": "role",
          "type": "uint8"
        },
        {
          "internalType": "uint256",
          "name": "registeredAt",
          "type": "uint256"
        }
      ],
      "stateMutability": "view",
      "type": "function",
      "constant": true
    },
    {
      "inputs": [
        {
          "internalType": "address",
          "name": "_userAddress",
          "type": "address"
        },
        {
          "internalType": "string",
          "name": "_username",
          "type": "string"
        },
        {
          "internalType": "enum HealthcareRecords.UserRole",
          "name": "_role",
          "type": "uint8"
        }
      ],
      "name": "registerUser",
      "outputs": [],
      "stateMutability": "nonpayable",
      "type": "function"
    },
    {
      "inputs": [
        {
          "internalType": "address",
          "name": "_userAddress",
          "type": "address"
        }
      ],
      "name": "getUser",
      "outputs": [
        {
          "internalType": "string",
          "name": "username",
          "type": "string"
        },
        {
          "internalType": "enum HealthcareRecords.UserRole",
          "name": "role",
          "type": "uint8"
        },
        {
          "internalType": "uint256",
          "name": "registeredAt",
          "type": "uint256"
        }
      ],
      "stateMutability": "view",
      "type": "function",
      "constant": true
    },
    {
      "inputs": [],
      "name": "getMyRole",
      "outputs": [
        {
          "internalType": "enum HealthcareRecords.UserRole",
          "name": "",
          "type": "uint8"
        }
      ],
      "stateMutability": "view",
      "type": "function",
      "constant": true
    },
    {
      "inputs": [
        {
          "internalType": "address",
          "name": "_patientAddress",
          "type": "address"
        },
        {
          "internalType": "string",
          "name": "_dataHash",
          "type": "string"
        },
        {
          "internalType": "string",
          "name": "_description",
          "type": "string"
        },
        {
          "internalType": "string",
          "name": "_drugUsed",
          "type": "string"
        },
        {
          "internalType": "uint256",
          "name": "_quantity",
          "type": "uint256"
        },
        {
          "internalType": "string",
          "name": "_cause",
          "type": "string"
        }
      ],
      "name": "addRecord",
      "outputs": [],
      "stateMutability": "nonpayable",
      "type": "function"
    },
    {
      "inputs": [
        {
          "internalType": "address",
          "name": "_patientAddress",
          "type": "address"
        }
      ],
      "name": "getPatientRecords",
      "outputs": [
        {
          "components": [
            {
              "internalType": "address",
              "name": "patientAddress",
              "type": "address"
            },
            {
              "internalType": "string",
              "name": "dataHash",
              "type": "string"
            },
            {
              "internalType": "string",
              "name": "description",
              "type": "string"
            },
            {
              "internalType": "string",
              "name": "drugUsed",
              "type": "string"
            },
            {
              "internalType": "uint256",
              "name": "quantity",
              "type": "uint256"
            },
            {
              "internalType": "string",
              "name": "cause",
              "type": "string"
            },
            {
              "internalType": "uint256",
              "name": "timestamp",
              "type": "uint256"
            },
            {
              "internalType": "address",
              "name": "creator",
              "type": "address"
            }
          ],
          "internalType": "struct HealthcareRecords.PatientRecord[]",
          "name": "",
          "type": "tuple[]"
        }
      ],
      "stateMutability": "view",
      "type": "function",
      "constant": true
    },
    {
      "inputs": [
        {
          "internalType": "address",
          "name": "_patientAddress",
          "type": "address"
        }
      ],
      "name": "getDrugDetailsForManufacturer",
      "outputs": [
        {
          "internalType": "string[]",
          "name": "dataHashes",
          "type": "string[]"
        },
        {
          "internalType": "string[]",
          "name": "drugUsedList",
          "type": "string[]"
        },
        {
          "internalType": "uint256[]",
          "name": "quantities",
          "type": "uint256[]"
        },
        {
          "internalType": "string[]",
          "name": "causes",
          "type": "string[]"
        },
        {
          "internalType": "uint256[]",
          "name": "timestamps",
          "type": "uint256[]"
        },
        {
          "internalType": "address[]",
          "name": "creators",
          "type": "address[]"
        }
      ],
      "stateMutability": "view",
      "type": "function",
      "constant": true
    }
  ],
  "bytecode": "0x608060405234801561001057600080fd5b506120d1806100206000396000f3fe608060405234801561001057600080fd5b50600436106100885760003560e01c806381efad241161005b57806381efad2414610102578063a848ec4a14610115578063a87430ba1461013a578063dffb51d61461014d57610088565b806318bd48471461008d57806343174b00146100b65780636e3b47fc146100cb5780636f77926b146100e0575b600080fd5b6100a061009b3660046116ba565b610174565b6040516100ad9190611a69565b60405180910390f35b6100c96100c436600461173e565b610603565b005b6100d36108cf565b6040516100ad9190611b60565b6100f36100ee3660046116ba565b61093f565b6040516100ad93929190611b74565b6100c96101103660046116db565b610a4f565b6101286101233660046116ba565b610c28565b6040516100ad969594939291906119b9565b6100f36101483660046116ba565b611245565b61016061015b3660046117ff565b6112f3565b6040516100ad989796959493929190611932565b606060003360009081526020819052604090206001015460ff1660048111156101ad57634e487b7160e01b600052602160045260246000fd5b14156101d45760405162461bcd60e51b81526004016101cb90611d9d565b60405180910390fd5b336000908152602081905260408082206001908101546001600160a01b03861684529190922082015460ff918216929116600481111561022457634e487b7160e01b600052602160045260246000fd5b146102415760405162461bcd60e51b81526004016101cb90611ee7565b600181600481111561026357634e487b7160e01b600052602160045260246000fd5b141561029657336001600160a01b038416146102915760405162461bcd60e51b81526004016101cb90611cce565b610305565b60028160048111156102b857634e487b7160e01b600052602160045260246000fd5b14806102e3575060048160048111156102e157634e487b7160e01b600052602160045260246000fd5b145b156102ed57610305565b60405162461bcd60e51b81526004016101cb90611deb565b6001600160a01b038316600090815260016020908152604080832080548251818502810185019093528083529193909284015b828210156105f65760008481526020908190206040805161010081019091526008850290910180546001600160a01b03168252600181018054929391929184019161038290612023565b80601f01602080910402602001604051908101604052809291908181526020018280546103ae90612023565b80156103fb5780601f106103d0576101008083540402835291602001916103fb565b820191906000526020600020905b8154815290600101906020018083116103de57829003601f168201915b5050505050815260200160028201805461041490612023565b80601f016020809104026020016040519081016040528092919081815260200182805461044090612023565b801561048d5780601f106104625761010080835404028352916020019161048d565b820191906000526020600020905b81548152906001019060200180831161047057829003601f168201915b505050505081526020016003820180546104a690612023565b80601f01602080910402602001604051908101604052809291908181526020018280546104d290612023565b801561051f5780601f106104f45761010080835404028352916020019161051f565b820191906000526020600020905b81548152906001019060200180831161050257829003601f168201915b505050505081526020016004820154815260200160058201805461054290612023565b80601f016020809104026020016040519081016040528092919081815260200182805461056e90612023565b80156105bb5780601f10610590576101008083540402835291602001916105bb565b820191906000526020600020905b81548152906001019060200180831161059e57829003601f168201915b505050918352505060068201546020808301919091526007909201546001600160a01b03166040909101529082526001929092019101610338565b505050509150505b919050565b60023360009081526020819052604090206001015460ff16600481111561063a57634e487b7160e01b600052602160045260246000fd5b146106575760405162461bcd60e51b81526004016101cb90611c09565b60008551116106785760405162461bcd60e51b81526004016101cb90611c97565b6001600160a01b03861661069e5760405162461bcd60e51b81526004016101cb90611fec565b60016001600160a01b03871660009081526020819052604090206001015460ff1660048111156106de57634e487b7160e01b600052602160045260246000fd5b146106fb5760405162461bcd60e51b81526004016101cb90611ee7565b600083511161071c5760405162461bcd60e51b81526004016101cb90611f44565b6000821161073c5760405162461bcd60e51b81526004016101cb90611c54565b600081511161075d5760405162461bcd60e51b81526004016101cb90611fbc565b60408051610100810182526001600160a01b0388811680835260208084018a81528486018a9052606085018990526080850188905260a085018790524260c08601523360e0860152600092835260018083529583208054808801825590845292829020855160089094020180546001600160a01b0319169390941692909217835590518051939485946107f7939185019290910190611589565b5060408201518051610813916002840191602090910190611589565b506060820151805161082f916003840191602090910190611589565b506080820151600482015560a08201518051610855916005840191602090910190611589565b5060c0820151600682015560e090910151600790910180546001600160a01b0319166001600160a01b0392831617905560405133918916907fd0d0c8602a21a7fc26feb87fd77a4716f793b2de5a35e4699d2a2402fd9e8db0906108be908a9089904290611ba4565b60405180910390a350505050505050565b6000803360009081526020819052604090206001015460ff16600481111561090757634e487b7160e01b600052602160045260246000fd5b14156109255760405162461bcd60e51b81526004016101cb90611d9d565b503360009081526020819052604090206001015460ff1690565b6001600160a01b038116600090815260208190526040812060609190819081600182015460ff16600481111561098557634e487b7160e01b600052602160045260246000fd5b14156109a35760405162461bcd60e51b81526004016101cb90611d4e565b600181015460028201548254839260ff16919083906109c190612023565b80601f01602080910402602001604051908101604052809291908181526020018280546109ed90612023565b8015610a3a5780601f10610a0f57610100808354040283529160200191610a3a565b820191906000526020600020905b815481529060010190602001808311610a1d57829003601f168201915b50505050509250935093509350509193909250565b6001600160a01b03831660009081526020819052604081206001015460ff166004811115610a8d57634e487b7160e01b600052602160045260246000fd5b14610aaa5760405162461bcd60e51b81526004016101cb90611e49565b6000816004811115610acc57634e487b7160e01b600052602160045260246000fd5b1415610aea5760405162461bcd60e51b81526004016101cb90611f7b565b6000825111610b0b5760405162461bcd60e51b81526004016101cb90611d17565b6001600160a01b038316610b315760405162461bcd60e51b81526004016101cb90611bda565b6040518060600160405280838152602001826004811115610b6257634e487b7160e01b600052602160045260246000fd5b8152426020918201526001600160a01b038516600090815280825260409020825180519192610b9692849290910190611589565b50602082015160018083018054909160ff1990911690836004811115610bcc57634e487b7160e01b600052602160045260246000fd5b021790555060408201518160020155905050826001600160a01b03167fe20b9b482e07c25b19f43796e724ce7c83ddf9ef501d7de45c19c2f444d45b31838342604051610c1b93929190611b74565b60405180910390a2505050565b606080808080806003803360009081526020819052604090206001015460ff166004811115610c6757634e487b7160e01b600052602160045260246000fd5b14610c845760405162461bcd60e51b81526004016101cb90611e92565b60016001600160a01b03891660009081526020819052604090206001015460ff166004811115610cc457634e487b7160e01b600052602160045260246000fd5b14610ce15760405162461bcd60e51b81526004016101cb90611ee7565b6001600160a01b0388166000908152600160205260409020805467ffffffffffffffff811115610d2157634e487b7160e01b600052604160045260246000fd5b604051908082528060200260200182016040528015610d5457816020015b6060815260200190600190039081610d3f5790505b50815490985067ffffffffffffffff811115610d8057634e487b7160e01b600052604160045260246000fd5b604051908082528060200260200182016040528015610db357816020015b6060815260200190600190039081610d9e5790505b50815490975067ffffffffffffffff811115610ddf57634e487b7160e01b600052604160045260246000fd5b604051908082528060200260200182016040528015610e08578160200160208202803683370190505b50815490965067ffffffffffffffff811115610e3457634e487b7160e01b600052604160045260246000fd5b604051908082528060200260200182016040528015610e6757816020015b6060815260200190600190039081610e525790505b50815490955067ffffffffffffffff811115610e9357634e487b7160e01b600052604160045260246000fd5b604051908082528060200260200182016040528015610ebc578160200160208202803683370190505b50815490945067ffffffffffffffff811115610ee857634e487b7160e01b600052604160045260246000fd5b604051908082528060200260200182016040528015610f11578160200160208202803683370190505b50925060005b8154811015611239576000828281548110610f4257634e487b7160e01b600052603260045260246000fd5b90600052602060002090600802019050806001018054610f6190612023565b80601f0160208091040260200160405190810160405280929190818152602001828054610f8d90612023565b8015610fda5780601f10610faf57610100808354040283529160200191610fda565b820191906000526020600020905b815481529060010190602001808311610fbd57829003601f168201915b50505050508a8381518110610fff57634e487b7160e01b600052603260045260246000fd5b602002602001018190525080600301805461101990612023565b80601f016020809104026020016040519081016040528092919081815260200182805461104590612023565b80156110925780601f1061106757610100808354040283529160200191611092565b820191906000526020600020905b81548152906001019060200180831161107557829003601f168201915b50505050508983815181106110b757634e487b7160e01b600052603260045260246000fd5b602002602001018190525080600401548883815181106110e757634e487b7160e01b600052603260045260246000fd5b60200260200101818152505080600501805461110290612023565b80601f016020809104026020016040519081016040528092919081815260200182805461112e90612023565b801561117b5780601f106111505761010080835404028352916020019161117b565b820191906000526020600020905b81548152906001019060200180831161115e57829003601f168201915b50505050508783815181106111a057634e487b7160e01b600052603260045260246000fd5b602002602001018190525080600601548683815181106111d057634e487b7160e01b600052603260045260246000fd5b6020908102919091010152600781015485516001600160a01b039091169086908490811061120e57634e487b7160e01b600052603260045260246000fd5b6001600160a01b039092166020928302919091019091015250806112318161205e565b915050610f17565b50505091939550919395565b60006020819052908152604090208054819061126090612023565b80601f016020809104026020016040519081016040528092919081815260200182805461128c90612023565b80156112d95780601f106112ae576101008083540402835291602001916112d9565b820191906000526020600020905b8154815290600101906020018083116112bc57829003601f168201915b505050506001830154600290930154919260ff1691905083565b6001602052816000526040600020818154811061130f57600080fd5b6000918252602090912060089091020180546001820180546001600160a01b03909216945091925061134090612023565b80601f016020809104026020016040519081016040528092919081815260200182805461136c90612023565b80156113b95780601f1061138e576101008083540402835291602001916113b9565b820191906000526020600020905b81548152906001019060200180831161139c57829003601f168201915b5050505050908060020180546113ce90612023565b80601f01602080910402602001604051908101604052809291908181526020018280546113fa90612023565b80156114475780601f1061141c57610100808354040283529160200191611447565b820191906000526020600020905b81548152906001019060200180831161142a57829003601f168201915b50505050509080600301805461145c90612023565b80601f016020809104026020016040519081016040528092919081815260200182805461148890612023565b80156114d55780601f106114aa576101008083540402835291602001916114d5565b820191906000526020600020905b8154815290600101906020018083116114b857829003601f168201915b5050505050908060040154908060050180546114f090612023565b80601f016020809104026020016040519081016040528092919081815260200182805461151c90612023565b80156115695780601f1061153e57610100808354040283529160200191611569565b820191906000526020600020905b81548152906001019060200180831161154c57829003601f168201915b5050505060068301546007909301549192916001600160a01b0316905088565b82805461159590612023565b90600052602060002090601f0160209004810192826115b757600085556115fd565b82601f106115d057805160ff19168380011785556115fd565b828001600101855582156115fd579182015b828111156115fd5782518255916020019190600101906115e2565b5061160992915061160d565b5090565b5b80821115611609576000815560010161160e565b80356001600160a01b03811681146105fe57600080fd5b600082601f830112611649578081fd5b813567ffffffffffffffff8082111561166457611664612085565b604051601f8301601f19168101602001828111828210171561168857611688612085565b60405282815284830160200186101561169f578384fd5b82602086016020830137918201602001929092529392505050565b6000602082840312156116cb578081fd5b6116d482611622565b9392505050565b6000806000606084860312156116ef578182fd5b6116f884611622565b9250602084013567ffffffffffffffff811115611713578283fd5b61171f86828701611639565b925050604084013560058110611733578182fd5b809150509250925092565b60008060008060008060c08789031215611756578182fd5b61175f87611622565b9550602087013567ffffffffffffffff8082111561177b578384fd5b6117878a838b01611639565b9650604089013591508082111561179c578384fd5b6117a88a838b01611639565b955060608901359150808211156117bd578384fd5b6117c98a838b01611639565b94506080890135935060a08901359150808211156117e5578283fd5b506117f289828a01611639565b9150509295509295509295565b60008060408385031215611811578182fd5b61181a83611622565b946020939093013593505050565b6001600160a01b03169052565b60008282518085526020808601955080818302840101818601855b8481101561187e57601f1986840301895261186c8383516118e7565b98840198925090830190600101611850565b5090979650505050505050565b6000815180845260208085019450808401835b838110156118ba5781518752958201959082019060010161189e565b509495945050505050565b600581106118e357634e487b7160e01b600052602160045260246000fd5b9052565b60008151808452815b8181101561190c576020818501810151868301820152016118f0565b8181111561191d5782602083870101525b50601f01601f19169290920160200192915050565b6001600160a01b038981168252610100602083018190526000916119588483018c6118e7565b9150838203604085015261196c828b6118e7565b91508382036060850152611980828a6118e7565b915087608085015283820360a085015261199a82886118e7565b92508560c085015280851660e085015250509998505050505050505050565b600060c082526119cc60c0830189611835565b6020838203818501526119df828a611835565b915083820360408501526119f3828961188b565b91508382036060850152611a078288611835565b91508382036080850152611a1b828761188b565b84810360a08601528551808252828701935090820190845b81811015611a585784516001600160a01b031683529383019391830191600101611a33565b50909b9a5050505050505050505050565b60208082528251828201819052600091906040908185019080840286018301878501865b83811015611b5257603f198984030185528151610100611aae858351611828565b88820151818a870152611ac3828701826118e7565b9150508782015185820389870152611adb82826118e7565b91505060608083015186830382880152611af583826118e7565b92505050608080830151818701525060a08083015186830382880152611b1b83826118e7565b9250505060c080830151818701525060e0808301519250611b3e81870184611828565b509588019593505090860190600101611a8d565b509098975050505050505050565b60208101611b6e82846118c5565b92915050565b600060608252611b8760608301866118e7565b9050611b9660208301856118c5565b826040830152949350505050565b600060608252611bb760608301866118e7565b8281036020840152611bc981866118e7565b915050826040830152949350505050565b60208082526015908201527424b73b30b634b2103ab9b2b91030b2323932b9b99760591b604082015260600190565b6020808252602b908201527f4f6e6c7920446f63746f72732063616e20616464207265636f726473206f6e2060408201526a313637b1b5b1b430b4b71760a91b606082015260800190565b60208082526023908201527f5175616e74697479206d7573742062652067726561746572207468616e207a6560408201526239379760e91b606082015260800190565b6020808252601a908201527f4461746120686173682063616e6e6f7420626520656d7074792e000000000000604082015260600190565b60208082526029908201527f50617469656e74732063616e206f6e6c792076696577207468656972206f776e604082015268103932b1b7b932399760b91b606082015260800190565b60208082526019908201527f557365726e616d652063616e6e6f7420626520656d7074792e00000000000000604082015260600190565b6020808252602f908201527f55736572206e6f7420666f756e64206f72206e6f74207265676973746572656460408201526e1037b710313637b1b5b1b430b4b71760891b606082015260800190565b6020808252602e908201527f43616c6c6572206973206e6f742061207265676973746572656420757365722060408201526d37b710313637b1b5b1b430b4b71760911b606082015260800190565b602080825260409082018190527f596f757220726f6c6520646f6573206e6f742068617665207065726d69737369908201527f6f6e20746f20766965772066756c6c2070617469656e74207265636f7264732e606082015260800190565b60208082526029908201527f5573657220697320616c72656164792072656769737465726564206f6e20626c60408201526837b1b5b1b430b4b71760b91b606082015260800190565b60208082526035908201527f43616c6c657220646f6573206e6f74206861766520746865207265717569726560408201527432103937b6329037b710313637b1b5b1b430b4b71760591b606082015260800190565b60208082526039908201527f5461726765742061646472657373206973206e6f74206120726567697374657260408201527f65642050617469656e74206f6e20626c6f636b636861696e2e00000000000000606082015260800190565b6020808252601a908201527f4472756720757365642063616e6e6f7420626520656d7074792e000000000000604082015260600190565b60208082526021908201527f43616e6e6f74207265676973746572207769746820274e6f6e652720726f6c656040820152601760f91b606082015260800190565b60208082526016908201527521b0bab9b29031b0b73737ba1031329032b6b83a3c9760511b604082015260600190565b60208082526018908201527f496e76616c69642070617469656e7420616464726573732e0000000000000000604082015260600190565b60028104600182168061203757607f821691505b6020821081141561205857634e487b7160e01b600052602260045260246000fd5b50919050565b600060001982141561207e57634e487b7160e01b81526011600452602481fd5b5060010190565b634e487b7160e01b600052604160045260246000fdfea264697066735822122036b92a099e9cee243ae67d8c1f28b126020d615be8ec6118976ca8557c87521964736f6c63430008000033",
  "immutableReferences": {},
  "source": "// SPDX-License-Identifier: MIT\r\npragma solidity ^0.8.0;\r\n\r\n// Defines a contract for the Integrated Healthcare Ecosystem\r\ncontract HealthcareRecords {\r\n\r\n    // --- Enums for User Roles ---\r\n    enum UserRole {\r\n        None,             // Default value for unregistered users\r\n        Patient,\r\n        Doctor,\r\n        DrugManufacturer,\r\n        InsuranceCompany // Renamed from Policymaker\r\n    }\r\n\r\n    // --- Structs for Data Storage ---\r\n\r\n    // Struct to store user registration details (password hash removed for hybrid approach)\r\n    struct User {\r\n        string username;    // A human-readable username\r\n        UserRole role;      // The assigned role from the UserRole enum\r\n        uint256 registeredAt; // Timestamp of registration\r\n    }\r\n\r\n    // Struct to hold a patient's detailed record\r\n    struct PatientRecord {\r\n        address patientAddress; // Ethereum address of the patient this record belongs to\r\n        string dataHash;        // IPFS CID of the actual medical data (e.g., full report)\r\n        string description;     // Brief description of the record (on-chain)\r\n        string drugUsed;        // Specific drug used for this treatment/record\r\n        uint256 quantity;       // Quantity of the drug used\r\n        string cause;           // Cause for which the drug was prescribed/used\r\n        uint256 timestamp;      // Timestamp when the record was added\r\n        address creator;        // Ethereum address of the entity who added this record\r\n    }\r\n\r\n    // --- Mappings for State Variables ---\r\n\r\n    // Mapping from user's Ethereum address to their User struct\r\n    mapping(address => User) public users;\r\n\r\n    // Mapping from a patient's address to an array of their records\r\n    mapping(address => PatientRecord[]) public recordsOfPatient;\r\n\r\n    // --- Events ---\r\n\r\n    // Event emitted upon successful user registration\r\n    event UserRegistered(address indexed userAddress, string username, UserRole role, uint256 timestamp);\r\n\r\n    // Event emitted when a new record is successfully added\r\n    event RecordAdded(\r\n        address indexed patient,\r\n        address indexed creator,\r\n        string dataHash,\r\n        string drugUsed,\r\n        uint256 timestamp\r\n    );\r\n\r\n    // --- Modifiers for Access Control ---\r\n\r\n    // Checks if the caller is a registered user\r\n    modifier onlyRegisteredUser() {\r\n        require(users[msg.sender].role != UserRole.None, \"Caller is not a registered user on blockchain.\");\r\n        _;\r\n    }\r\n\r\n    // Checks if the caller has a specific role\r\n    modifier onlyRole(UserRole _role) {\r\n        require(users[msg.sender].role == _role, \"Caller does not have the required role on blockchain.\");\r\n        _;\r\n    }\r\n\r\n    // Checks if the caller is a doctor (can add full records)\r\n    modifier onlyDoctor() {\r\n        require(users[msg.sender].role == UserRole.Doctor, \"Only Doctors can add records on blockchain.\");\r\n        _;\r\n    }\r\n\r\n    // --- User Management Functions ---\r\n\r\n    /**\r\n     * @dev Registers a new user with a specified role.\r\n     * This function is intended to be called by an *authorized* entity (e.g., your backend)\r\n     * after a user signs up via Firebase Auth. It links the wallet address to a role on-chain.\r\n     * @param _userAddress The Ethereum address of the user being registered.\r\n     * @param _username A string username for the user.\r\n     * @param _role The UserRole enum value for the new user.\r\n     */\r\n    function registerUser(address _userAddress, string memory _username, UserRole _role) public {\r\n        // This function would ideally be called by an authorized backend/admin.\r\n        // For simplicity in this DApp demo, we'll keep it public for now.\r\n        // In a production system, you might add:\r\n        // require(msg.sender == owner, \"Only owner can register users\");\r\n        // or a different admin role check.\r\n\r\n        // Prevent re-registration for the same address\r\n        require(users[_userAddress].role == UserRole.None, \"User is already registered on blockchain.\");\r\n        // Ensure a valid role is selected\r\n        require(_role != UserRole.None, \"Cannot register with 'None' role.\");\r\n        require(bytes(_username).length > 0, \"Username cannot be empty.\");\r\n        require(_userAddress != address(0), \"Invalid user address.\");\r\n\r\n\r\n        users[_userAddress] = User({\r\n            username: _username,\r\n            role: _role,\r\n            registeredAt: block.timestamp\r\n        });\r\n\r\n        emit UserRegistered(_userAddress, _username, _role, block.timestamp);\r\n    }\r\n\r\n    /**\r\n     * @dev Gets the details of a specific user.\r\n     * Used for login verification and displaying user info.\r\n     * @param _userAddress The address of the user to query.\r\n     * @return username The user's username.\r\n     * @return role The user's role (as uint8).\r\n     * @return registeredAt The timestamp of registration.\r\n     */\r\n    function getUser(address _userAddress)\r\n        public\r\n        view\r\n        returns (string memory username, UserRole role, uint256 registeredAt)\r\n    {\r\n        User storage user = users[_userAddress];\r\n        require(user.role != UserRole.None, \"User not found or not registered on blockchain.\");\r\n        return (user.username, user.role, user.registeredAt);\r\n    }\r\n\r\n    /**\r\n     * @dev Gets the role of the caller.\r\n     * @return The UserRole enum value of the caller.\r\n     */\r\n    function getMyRole() public view onlyRegisteredUser() returns (UserRole) {\r\n        return users[msg.sender].role;\r\n    }\r\n\r\n    // --- Healthcare Record Management Functions ---\r\n\r\n    /**\r\n     * @dev Adds a new detailed healthcare record for a specified patient.\r\n     * Only callable by registered Doctors.\r\n     * @param _patientAddress The Ethereum address of the patient.\r\n     * @param _dataHash The IPFS CID of the full medical data (e.g., full report)\r\n     * @param _description A brief description of the record.\r\n     * @param _drugUsed The name of the drug used.\r\n     * @param _quantity The quantity of the drug used.\r\n     * @param _cause The cause for which the drug was prescribed.\r\n     */\r\n    function addRecord(\r\n        address _patientAddress,\r\n        string memory _dataHash,\r\n        string memory _description,\r\n        string memory _drugUsed,\r\n        uint256 _quantity,\r\n        string memory _cause\r\n    ) public onlyDoctor() { // Only Doctors can add full records on blockchain\r\n        require(bytes(_dataHash).length > 0, \"Data hash cannot be empty.\");\r\n        require(_patientAddress != address(0), \"Invalid patient address.\");\r\n        require(users[_patientAddress].role == UserRole.Patient, \"Target address is not a registered Patient on blockchain.\");\r\n        require(bytes(_drugUsed).length > 0, \"Drug used cannot be empty.\");\r\n        require(_quantity > 0, \"Quantity must be greater than zero.\");\r\n        require(bytes(_cause).length > 0, \"Cause cannot be empty.\");\r\n\r\n        PatientRecord memory newRecord = PatientRecord({\r\n            patientAddress: _patientAddress,\r\n            dataHash: _dataHash,\r\n            description: _description,\r\n            drugUsed: _drugUsed,\r\n            quantity: _quantity,\r\n            cause: _cause,\r\n            timestamp: block.timestamp,\r\n            creator: msg.sender\r\n        });\r\n\r\n        recordsOfPatient[_patientAddress].push(newRecord);\r\n\r\n        emit RecordAdded(_patientAddress, msg.sender, _dataHash, _drugUsed, block.timestamp);\r\n    }\r\n\r\n    /**\r\n     * @dev Retrieves all healthcare records for a specific patient, with role-based access.\r\n     * - Patients can only view their own records.\r\n     * - Doctors and InsuranceCompanies can view any patient's full records.\r\n     * - Drug Manufacturers can NOT use this function to view full records; they have a dedicated function for drug details.\r\n     * @param _patientAddress The Ethereum address of the patient.\r\n     * @return An array of PatientRecord structs associated with the given patient.\r\n     */\r\n    function getPatientRecords(address _patientAddress)\r\n        public\r\n        view\r\n        onlyRegisteredUser() // Only registered users can attempt to view records\r\n        returns (PatientRecord[] memory)\r\n    {\r\n        UserRole callerRole = users[msg.sender].role;\r\n\r\n        // Check if the target is a registered patient\r\n        require(users[_patientAddress].role == UserRole.Patient, \"Target address is not a registered Patient on blockchain.\");\r\n\r\n        if (callerRole == UserRole.Patient) {\r\n            // Patient can only view their own records\r\n            require(msg.sender == _patientAddress, \"Patients can only view their own records.\");\r\n        } else if (callerRole == UserRole.Doctor || callerRole == UserRole.InsuranceCompany) { // Updated here\r\n            // Doctors and InsuranceCompanies can view any patient's records\r\n            // No additional check needed beyond being a registered user with these roles\r\n        } else {\r\n            // Drug Manufacturers and other non-viewing roles are explicitly rejected here\r\n            revert(\"Your role does not have permission to view full patient records.\");\r\n        }\r\n\r\n        return recordsOfPatient[_patientAddress];\r\n    }\r\n\r\n    /**\r\n     * @dev Retrieves drug-specific details from all records for a patient.\r\n     * This function is specifically for Drug Manufacturers.\r\n     * @param _patientAddress The Ethereum address of the patient.\r\n     * @return dataHashes An array of IPFS CIDs for the medical data.\r\n     * @return drugUsedList An array of drug names used.\r\n     * @return quantities An array of drug quantities.\r\n     * @return causes An array of causes/diagnoses.\r\n     * @return timestamps An array of timestamps when records were added.\r\n     * @return creators An array of addresses of the creators.\r\n     */\r\n    function getDrugDetailsForManufacturer(address _patientAddress)\r\n        public\r\n        view\r\n        onlyRole(UserRole.DrugManufacturer) // Only Drug Manufacturers can call this\r\n        returns (string[] memory dataHashes, string[] memory drugUsedList, uint256[] memory quantities, string[] memory causes, uint256[] memory timestamps, address[] memory creators)\r\n    {\r\n        require(users[_patientAddress].role == UserRole.Patient, \"Target address is not a registered Patient on blockchain.\");\r\n\r\n        PatientRecord[] storage patientRecords = recordsOfPatient[_patientAddress];\r\n\r\n        dataHashes = new string[](patientRecords.length);\r\n        drugUsedList = new string[](patientRecords.length);\r\n        quantities = new uint256[](patientRecords.length);\r\n        causes = new string[](patientRecords.length);\r\n        timestamps = new uint256[](patientRecords.length);\r\n        creators = new address[](patientRecords.length);\r\n\r\n        for (uint i = 0; i < patientRecords.length; i++) {\r\n            PatientRecord storage record = patientRecords[i];\r\n            dataHashes[i] = record.dataHash;\r\n            drugUsedList[i] = record.drugUsed;\r\n            quantities[i] = record.quantity;\r\n            causes[i] = record.cause;\r\n            timestamps[i] = record.timestamp;\r\n            creators[i] = record.creator;\r\n        }\r\n\r\n        return (dataHashes, drugUsedList, quantities, causes, timestamps, creators);\r\n    }\r\n}\r\n",
  "sourcePath": "C:\\Users\\GATEWAY\\healthcare-dapp\\contracts\\HealthcareRecords.sol",
  "compiler": {
    "name": "solc",
    "version": "0.8.0+commit.c7dfd78e.Emscripten.clang"
  },
  "schemaVersion": "3.4.16",
  "updatedAt": "2025-07-01T16:06:37.451Z",
  "networkType": "ethereum",
  "devdoc": {
    "kind": "dev",
    "methods": {
      "addRecord(address,string,string,string,uint256,string)": {
        "details": "Adds a new detailed healthcare record for a specified patient. Only callable by registered Doctors.",
        "params": {
          "_cause": "The cause for which the drug was prescribed.",
          "_dataHash": "The IPFS CID of the full medical data (e.g., full report)",
          "_description": "A brief description of the record.",
          "_drugUsed": "The name of the drug used.",
          "_patientAddress": "The Ethereum address of the patient.",
          "_quantity": "The quantity of the drug used."
        }
      },
      "getDrugDetailsForManufacturer(address)": {
        "details": "Retrieves drug-specific details from all records for a patient. This function is specifically for Drug Manufacturers.",
        "params": {
          "_patientAddress": "The Ethereum address of the patient."
        },
        "returns": {
          "causes": "An array of causes/diagnoses.",
          "creators": "An array of addresses of the creators.",
          "dataHashes": "An array of IPFS CIDs for the medical data.",
          "drugUsedList": "An array of drug names used.",
          "quantities": "An array of drug quantities.",
          "timestamps": "An array of timestamps when records were added."
        }
      },
      "getMyRole()": {
        "details": "Gets the role of the caller.",
        "returns": {
          "_0": "The UserRole enum value of the caller."
        }
      },
      "getPatientRecords(address)": {
        "details": "Retrieves all healthcare records for a specific patient, with role-based access. - Patients can only view their own records. - Doctors and InsuranceCompanies can view any patient's full records. - Drug Manufacturers can NOT use this function to view full records; they have a dedicated function for drug details.",
        "params": {
          "_patientAddress": "The Ethereum address of the patient."
        },
        "returns": {
          "_0": "An array of PatientRecord structs associated with the given patient."
        }
      },
      "getUser(address)": {
        "details": "Gets the details of a specific user. Used for login verification and displaying user info.",
        "params": {
          "_userAddress": "The address of the user to query."
        },
        "returns": {
          "registeredAt": "The timestamp of registration.",
          "role": "The user's role (as uint8).",
          "username": "The user's username."
        }
      },
      "registerUser(address,string,uint8)": {
        "details": "Registers a new user with a specified role. This function is intended to be called by an *authorized* entity (e.g., your backend) after a user signs up via Firebase Auth. It links the wallet address to a role on-chain.",
        "params": {
          "_role": "The UserRole enum value for the new user.",
          "_userAddress": "The Ethereum address of the user being registered.",
          "_username": "A string username for the user."
        }
      }
    },
    "version": 1
  },
  "userdoc": {
    "kind": "user",
    "methods": {},
    "version": 1
  }
}